:100000000C9441000C945E000C945E000C945E0015
:100010000C945E000C945E000C945E000C945E00E8
:100020000C945E000C945E000C945E000C945E00D8
:100030000C945E000C945E000C945E000C945E00C8
:100040000C945E000C945E000C945E000C945E00B8
:100050000C945E00084AD73B3BCE016E84BCBFFDCA
:10006000C12F3D6C74319ABD56833DDA3D00C77F88
:1000700011BED9E4BB4C3E916BAAAABE0000008021
:100080003F0011241FBECFE5D4E0DEBFCDBF10E09E
:10009000A0E6B0E0E2E4F4E102C005900D92A03BDE
:1000A000B107D9F710E0A0EBB0E001C01D92A13C70
:1000B000B107E1F70E94ED050C941F0A0C940000B3
:1000C0008FEF8BBB1ABA88BB17BA15BA84BB82BB39
:1000D00011BA08958C9A8D9A1EBC1DBC1CBC1BBC09
:1000E0001ABC19BC18BC81E087BD8FE886BD82EAC6
:1000F0008FBD89E18EBD08951ABA16B880E687B91A
:1001000087E886B980E888B9089515B88770806651
:1001100087B9369A3699FECF85B10895AC0130E0A3
:1001200060E971E00CC0FB013197F1F70197D9F755
:100130002F5F243019F084EC99E0F5CF3F5F832FD7
:1001400090E08417950714F420E0F5CF0895AF925E
:10015000BF92CF92DF92EF92FF920F931F93AA2745
:1001600097FDA095BA2FBC01CD010E9446085B0106
:100170006C0120E030E04AE755E40E9426097B014B
:100180008C0120E030E040E85FE30E94A70788236D
:100190001CF461E070E024C0C801B70120E03FEF2B
:1001A0004FE757E40E941B091816B4F4C601B501C5
:1001B00020E030E040E251E40E9426090E94180845
:1001C00080E991E005C0FC013197F1F76150704082
:1001D00061157105C1F707C0C801B7010E94180871
:1001E000CB010197F1F71F910F91FF90EF90DF90F6
:1001F000CF90BF90AF900895AF92BF92CF92DF9211
:10020000EF92FF920F931F93AA2797FDA095BA2F05
:10021000BC01CD010E9446085B016C012BEA3AEA61
:100220004AEA50E40E9426097B018C0120E030E07C
:1002300040E85FE30E94A707882314F461E054C0FC
:10024000C801B70120E030E04FE753E40E941B09EA
:1002500018160CF045C0C601B50120E030E04AE7B1
:1002600054E40E94AB075B016C0120E030E04AE7F8
:1002700055E40E9426097B018C0120E030E040E833
:100280005FE30E94A70788231CF461E070E024C0AC
:10029000C801B70120E03FEF4FE757E40E941B0978
:1002A0001816B4F4C601B50120E030E040E251E494
:1002B0000E9426090E94180880E991E005C0FC010F
:1002C0003197F1F76150704061157105C1F70EC0AB
:1002D000C801B7010E941808CB010197F1F706C0C9
:1002E000C801B7010E9418086A95F1F71F910F9194
:1002F000FF90EF90DF90CF90BF90AF9008950F9355
:100300001F93CF93DF931092B000C0E0D0E001E0E4
:1003100010E08C2F0E948500843660F498010C2E2A
:1003200002C0220F331F0A94E2F78091B000822BA3
:100330008093B0002196C430D10559F7DF91CF9159
:100340001F910F91089580E00E9485008093B50071
:1003500081E00E9485008093B60082E00E948500C3
:100360008093B70083E00E9485008093B8000895D1
:1003700080E00E9485008093BD0081E00E9485009E
:100380008093BE0082E00E9485008093BF0083E0DE
:100390000E9485008093C00008951F93CF93DF9340
:1003A000C0E0D0E01FEF15BB84E690E00E94A700FC
:1003B00015BA84E690E00E94A7002196C530D105C9
:1003C00091F7DF91CF911F9108959BBD8ABD08954C
:1003D00099BD88BD089587B3807F87BBC69AC598AD
:1003E00082E08A95F1F722E035E0C79A822F8A955C
:1003F000F1F786B38295807F922F9A95F1F7C7988F
:10040000932F9A95F1F7C79A922F9A95F1F796B391
:10041000922F9A95F1F7C798932F9A95F1F787FD48
:10042000E4CFC69887B38F6087BB0895282F6623D3
:1004300011F4C59801C0C59A82E08A95F1F7C79A70
:1004400088B3922F92959F70807F982B98BB95E0F0
:10045000892F8A95F1F7C798892F8A95F1F7C79A5E
:1004600088B32F70807F822B88BB892F8A95F1F704
:10047000C7989A95F1F70E94EB0108951F93182FE2
:100480008CE291E020E931E0F9013197F1F7019731
:10049000D9F787B38F6087BBBF9ABD9ABE9A88B3DE
:1004A000807F88BBC798C698C59881E08A95F1F788
:1004B000C79AC19A85E0982F9A95F1F7C7988A95BF
:1004C000F1F70E94EB01812F8C6060E00E94160220
:1004D00088E260E00E9416021F910895CF93DF9397
:1004E000EC0104C061E00E941602219688818823F5
:1004F000C9F7DF91CF910895EF92FF920F931F9369
:10050000DF93CF9300D000D00F92CDB7DEB79C0120
:100510008B01FE01319685E0DF011D928A95E9F796
:10052000FE0135960DC0C9016AE070E00E94E30942
:100530008083C9016AE070E00E94E3099B01319762
:100540002115310581F7BFEF0F3F1B0779F420E03C
:1005500030E0AE014F5F5F4F02C02F5F3F4FFA01A7
:10056000E20FF31F80818823C1F304C025E030E04F
:10057000201B310B7E010894E11CF11CE20EF31EDE
:10058000890109C0F70181917F01805D61E00E94CE
:1005900016020F5F1F4F05301105A4F30F900F9047
:1005A0000F900F900F90CF91DF911F910F91FF90BF
:1005B000EF900895883230F461118064806860E0C3
:1005C0000E94160208950F931F938A010E94DA0277
:1005D000C8010E946E021F910F910895EF92FF9241
:1005E0000F931F938A0179010E94DA02C801B701B3
:1005F0000E947C021F910F91FF90EF9008951AB80E
:100600001BB887E080BD87E689B910BC88E98AB944
:1006100008955D9BFECF8CB90895FC0104C05D9BDD
:10062000FECF8CB9319680818823C9F708955D9BF0
:10063000FECF8AE08CB95D9BFECF8DE08CB908952A
:100640005F9BFECF8CB108958FEF84BB0895AC9A69
:10065000AD98AE98AF980895AC98AD9AAE98AF9813
:100660000895AC98AD98AE9AAF980895AC98AD98AF
:10067000AE9AAF980895AC9AAD98AE98AF98089599
:10068000AC98AD98AE98AF9A0895AC9AAD98AE9AE2
:10069000AF980895AC98AD9AAE98AF9A0895AC987B
:1006A000AD9AAE9AAF980895AC9AAD98AE98AF9ABD
:1006B0000895AC98AD98AE98AF980895AC9AAD9A5D
:1006C000AE9AAF9A089582B38F6082BB81B3807F68
:1006D00081BB089520B330E02095309521703070B3
:1006E000C901089520B330E03695279520953095BF
:1006F00021703070C901089520B330E036952795F8
:10070000369527952095309521703070C901089550
:1007100020B330E043E0369527954A95E1F72095E0
:10072000309521703070C90108958FE084BB82E05C
:100730000E943E0281E060E00E94160208950F933D
:100740001F93CF93DF93EC0180E690E00E946E024E
:1007500088EE93E00E94A70081E060E00E9416020C
:100760001092B2001092B1000EE014E017C005BB69
:100770008091AE009091AF000E94A70015BB8091C0
:10078000AE009091AF000E94A7008091B1009091BF
:10079000B20001969093B2008093B1008091B100B5
:1007A0009091B2008C179D0714F3DF91CF911F91A8
:1007B0000F9108951F93CF93DF93EC0188E690E0AB
:1007C0000E946E0288EE93E00E94A70081E060E044
:1007D0000E9416021092B2001092B1001AE017C0E7
:1007E00015BB8091AE009091AF000E94A70015BA92
:1007F0008091AE009091AF000E94A7008091B1005F
:100800009091B20001969093B2008093B1008091D4
:10081000B1009091B2008C179D0714F3DF91CF9136
:100820001F9108950F931F93CF93DF93EC0182E7FD
:1008300090E00E946E0288EE93E00E94A70081E0A3
:1008400060E00E9416021092B2001092B1000FE018
:1008500015E017C005BB8091AE009091AF000E94DB
:10086000A70015BB8091AE009091AF000E94A70039
:100870008091B1009091B20001969093B200809364
:10088000B1008091B1009091B2008C179D0714F3D4
:10089000DF91CF911F910F9108952F923F924F9228
:1008A0005F926F927F928F929F92AF92BF92CF9200
:1008B000DF92EF92FF920F931F93CF93DF937C0110
:1008C0008B01EA0159018DE790E00E946E0280EDF4
:1008D00097E00E94A70081E060E00E941602A01A43
:1008E000B10ACE19DF0980E090E060E070E0AE016F
:1008F00026E030E00E94EE0280E090E061E070E0EF
:10090000A50126E030E00E94EE0288E893E10E9413
:10091000A70081E060E00E941602C501BE010E94AE
:10092000E309882777FD8095982F0E9446080E944A
:100930007F0720E030E044E353E40E9426092BEDDA
:100940003FE049E450E40E94AB073B014C01BE018B
:10095000882777FD8095982F0E9446089B01AC015F
:100960000E9426097B018C01CC24B7FCC094DC2CAE
:10097000C601B5010E9446089B01AC010E942609F0
:100980009B01AC01C801B7010E941B070E948D09A1
:100990002EEA37E441EE5DE30E94AB070E941308A4
:1009A0001B012C01C401B30121E73DE34AEC5FE3E5
:1009B0000E9426090E9413085B016C01C401B30167
:1009C0000E9413087B018C0180E090E060E070E001
:1009D000A70126E030E00E94EE0280E090E061E0B6
:1009E00070E0A50126E030E00E94EE0288E893E185
:1009F0000E94A70081E060E00E941602D7FF11C0AC
:100A000088E690E00E946E0280E090E061E070E095
:100A1000A70123E030E00E94EE02C5010E94DA0344
:100A200012C0CD2BA1F082E790E00E946E0280E020
:100A300090E061E070E0A70123E030E00E94EE0268
:100A4000C5010E94120481E060E00E941602C1010B
:100A50000E949F0381E060E00E941602DF91CF9127
:100A60001F910F91FF90EF90DF90CF90BF90AF90CC
:100A70009F908F907F906F905F904F903F902F90BE
:100A80000895CF92DF92EF92FF920F931F93CF932F
:100A9000DF938C017B016A0188E890E00E946E027E
:100AA00080EA9FE00E94A70081E060E00E941602B9
:100AB000A601400F511FC801B70197010E944D04C4
:100AC0008AE590E09C01C29EC001C39E900DD29E1B
:100AD000900D11246CE870E00E94E309882777FDEF
:100AE0008095982F0E9446082EEA37E441EE5DE398
:100AF0000E94AB070E9413088B018CE890E00E94D3
:100B00001204C0E0D0E0C8010E949F0383E090E09F
:100B10000E941204219632E0C033D307A1F7DF917F
:100B2000CF911F910F91FF90EF90DF90CF9008959C
:100B3000AF92BF92CF92DF92EF92FF920F931F93EB
:100B4000CF93DF936C015B017A018FE890E00E9404
:100B50006E0280EA9FE00E94A70081E060E00E94B0
:100B6000160280E090E060E070E0A60195010E942E
:100B70004D040027F7FC0095102FC801B7010E9413
:100B800046082EEA37E441EE5DE30E94AB070E947F
:100B900013088B0188EA90E00E94DA03C0E0D0E0FD
:100BA000C8010E949F0380E790E00E94DA03C80119
:100BB0000E949F0380EE90E00E9412042196C530AF
:100BC000D10571F7DF91CF911F910F91FF90EF90B9
:100BD000DF90CF90BF90AF9008950E94950384E975
:100BE00090E00E946E0288E893E10E94A70081E0F5
:100BF00060E00E94160280E090E060E070E04AE071
:100C000050E00E94980508956F927F928F929F9274
:100C1000AF92BF92CF92DF92EF92FF920F931F930A
:100C20004C013B017A0159018DE990E00E946E026E
:100C300080EA9FE00E94A70081E060E00E94160227
:100C400080E090E060E070E0A40193010E944D0418
:100C50000027F7FC0095102FC801B7010E94460835
:100C60002EEA37E441EE5DE30E94AB070E941308D1
:100C70003B014C01CC24B7FCC094DC2CC601B5016F
:100C80000E9446082EEA37E441EE5DE30E94AB077E
:100C90000E9413087B018C01CB010E949F038CE80A
:100CA00090E00E941204C3010E949F038CE890E030
:100CB0000E941204C7010E949F038CE890E00E94EA
:100CC0001204C3010E949F031F910F91FF90EF90A8
:100CD000DF90CF90BF90AF909F908F907F906F905C
:100CE0000895AF92BF92CF92DF92EF92FF920F934F
:100CF0001F936C015B017A0187EA90E00E946E020B
:100D000080EA9FE00E94A70081E060E00E94160256
:100D100080E090E060E070E0A60195010E944D0443
:100D20000027F7FC0095102FC801B7010E94460864
:100D30002EEA37E441EE5DE30E94AB070E94130800
:100D40007B018C01CB010E949F038FE890E00E9401
:100D50001204C7010E949F038FE890E00E941204D2
:100D6000C7010E949F038FE890E00E941204C70110
:100D70000E949F031F910F91FF90EF90DF90CF9003
:100D8000BF90AF90089580E090E00E940A0A80939F
:100D9000B90081E090E00E940A0A8093BA0082E0E4
:100DA00090E00E940A0A8093BB0083E090E00E94DA
:100DB0000A0A8093BC000895CF93DF932091BD0071
:100DC0008091B50090E0820F911D95958795809355
:100DD000B9002091BE008091B60090E0820F911D75
:100DE000959587958093BA002091BF008091B700B8
:100DF00090E0820F911D959587958093BB0020917F
:100E0000C0008091B80090E0820F911D9595879564
:100E10008093BC00C0E0D0E0FE01E754FF4FCE015C
:100E200060810E94120A2196C430D105A9F7DF9192
:100E3000CF9108955058BB27AA270ED0C2C1B3D175
:100E400030F0B8D120F031F49F3F11F41EF483C18B
:100E50000EF4E095E7FB79C1E92FC4D180F3BA170E
:100E6000620773078407950718F071F49EF5DCC1DB
:100E70000EF4E0950B2EBA2FA02D0B01B9019001B5
:100E80000C01CA01A0011124FF27591B99F0593FF9
:100E900050F4503E68F11A16F040A22F232F342F41
:100EA0004427585FF3CF469537952795A795F0408F
:100EB0005395C9F77EF41F16BA0B620B730B840BA4
:100EC000BAF09150A1F0FF0FBB1F661F771F881F5C
:100ED000C2F70EC0BA0F621F731F841F48F48795B4
:100EE00077956795B795F7959E3F08F0B3CF9395A3
:100EF000880F08F09927EE0F979587950895DF934F
:100F0000DD27B92FBF7740E85FE3161617064807BD
:100F10005B0710F4D92F93D19F938F937F936F9397
:100F20003AD2E4E5F0E01AD14CD12F913F914F91A4
:100F30005F9198D1DD2349F09058A2EA2AED3FE075
:100F400049EC5FE3D0785D2787DFDF913AC1D9D0E4
:100F500008F481E008950CD034C12CD140F023D1A5
:100F600030F021F45F3F19F0F0C051115EC1F3C0C1
:100F700039D198F39923C9F35523B1F3951B550B38
:100F8000BB27AA2762177307840738F09F5F5F4F5C
:100F9000220F331F441FAA1FA9F333D00E2E3AF09D
:100FA000E0E830D091505040E695001CCAF729D0B7
:100FB000FE2F27D0660F771F881FBB1F2617370706
:100FC0004807AB07B0E809F0BB0B802DBF01FF2736
:100FD00093585F4F2AF09E3F510568F0B6C025C177
:100FE0005F3FECF3983EDCF3869577956795B79570
:100FF000F7959F5FC9F7880F911D9695879597F98B
:101000000895E1E0660F771F881FBB1F6217730703
:101010008407BA0720F0621B730B840BBA0BEE1F18
:1010200088F7E095089504D06894B111FEC0089542
:10103000E1D088F09F5790F0B92F9927B751A0F0D1
:10104000D1F0660F771F881F991F1AF0BA95C9F75C
:1010500012C0B13081F0E8D0B1E00895E5C0672F4B
:10106000782F8827B85F39F0B93FCCF3869577950C
:101070006795B395D9F73EF49095809570956195F5
:101080007F4F8F4F9F4F0895E89409C097FB3EF420
:1010900090958095709561957F4F8F4F9F4F9923C5
:1010A000A9F0F92F96E9BB279395F6958795779543
:1010B0006795B795F111F8CFFAF4BB0F11F460FF03
:1010C0001BC06F5F7F4F8F4F9F4F16C0882311F05B
:1010D00096E911C0772321F09EE8872F762F05C06F
:1010E000662371F096E8862F70E060E02AF09A950A
:1010F000660F771F881FDAF7880F9695879597F9FF
:101100000895990F0008550FAA0BE0E8FEEF161698
:101110001706E807F907C0F012161306E407F507EB
:1011200098F0621B730B840B950B39F40A2661F05F
:10113000232B242B252B21F408950A2609F4A14002
:10114000A6958FEF811D811D089597F99F6780E80F
:1011500070E060E008959FEF80EC0895DF93CF93F7
:101160001F930F93FF92EF92DF927B018C016894A3
:1011700005C0DA2EEF0176D0FE01E894A591259105
:10118000359145915591AEF3EF0166DEFE01970171
:10119000A801DA9479F7DF90EF90FF900F911F91FB
:1011A000CF91DF91089500240A94161617061806A9
:1011B0000906089500240A9412161306140605065B
:1011C0000895092E0394000C11F4882352F0BB0FEC
:1011D00040F4BF2B11F460FF04C06F5F7F4F8F4F4F
:1011E0009F4F089557FD9058440F551F59F05F3F8A
:1011F00071F04795880F97FB991F61F09F3F79F039
:1012000087950895121613061406551FF2CF4695BA
:10121000F1DF08C0161617061806991FF1CF86953C
:101220007105610508940895E894BB276627772720
:10123000CB0197F9089565DF08F48FEF08959B01BE
:10124000AC0160E070E080E89FE385CE0BD0B9CFC1
:10125000AADF28F0AFDF18F0952309F076CF7BCF17
:101260001124E3CFBFDFA0F3959FD1F3950F50E09A
:10127000551F629FF001729FBB27F00DB11D639F48
:10128000AA27F00DB11DAA1F649F6627B00DA11DEE
:10129000661F829F2227B00DA11D621F739FB00D94
:1012A000A11D621F839FA00D611D221F749F332704
:1012B000A00D611D231F849F600D211D822F762F9D
:1012C0006A2F11249F5750408AF0E1F088234AF09A
:1012D000EE0FFF1FBB1F661F771F881F91505040E6
:1012E000A9F79E3F510570F030CF9FCF5F3FECF3E1
:1012F000983EDCF3869577956795B795F795E795D2
:101300009F5FC1F7FE2B880F911D9695879597F9E2
:10131000089511F40EF41FCF41C06CDFD0F3992370
:10132000D9F3CEF39F57550B87FF46D00024A0E694
:1013300040EA900180585695979528F4805C660F96
:10134000771F881F20F026173707480730F4621BE5
:10135000730B840B202931294A2BA69517940794E7
:10136000202531254A2758F7660F771F881F20F060
:1013700026173707480730F4620B730B840B200DD8
:10138000311D411DA09581F7B901842F9158880F17
:101390009695879508959B01AC0158CF9F3F31F0FA
:1013A000915020F4879577956795B795880F911D93
:1013B0009695879597F9089591505040660F771F3D
:1013C000881FD2F7089597FB092E07260AD077FDCC
:1013D00004D00CD006D000201AF4709561957F4F90
:1013E0000895F6F7909581959F4F0895AA1BBB1B12
:1013F00051E107C0AA1FBB1FA617B70710F0A61B15
:10140000B70B881F991F5A95A9F780959095BC0135
:10141000CD010895E199FECF9FBB8EBBE09A99273D
:101420008DB30895262FE199FECF9FBB8EBB2DBBB8
:101430000FB6F894E29AE19A0FBE01960895F894D7
:02144000FFCFDC
:10144200666F72776172640073706F74206C656688
:10145200740073706F7420726967687400676F74C8
:101462006F206372646E7400636972636C650073EB
:10147200746172007374617274696E67007265637D
:1014820074616E676C65007371756172650014003A
:00000001FF
